:100000000C942A000C9447000C94FB020C944700BB
:100010000C9447000C9447000C9447000C94470044
:100020000C9447000C9447000C9447000C94470034
:100030000C9447000C9447000C9447000C94470024
:100040000C9424030C9447000C9447000C94470034
:100050000C94470011241FBECFE5D8E0DEBFCDBF12
:1000600010E0A0E6B0E0E8E7F8E002C005900D92ED
:10007000A838B107D9F720E0A8E8B0E001C01D9288
:10008000A43BB207E1F70E946F000C943A040C9471
:1000900000008091B0009091B100A091B200B091A9
:1000A000B300892B8A2B8B2BB1F060E080E00E949B
:1000B000C4016091B0007091B1008091B200909144
:1000C000B3000E9455011092B0001092B10010923E
:1000D000B2001092B3008FE00E94FD0108950E94CB
:1000E000660381E00E94E60269E470E08FE00E940E
:1000F000F2020E9400020E94E1000E941A028FE0B8
:100100000E94E301FFCFCF93C82F60E083E00E94FD
:100110001E0260E082E00E941E02C4FB662760F9B6
:1001200088E00E941E02C5FB662760F989E00E94F4
:100130001E02C6FB662760F98AE00E941E026C2F31
:10014000661F6627661F8CE00E941E0261E082E047
:100150000E941E028FE99FE00197F1F700C00000A6
:1001600060E082E00E941E026C2F617088E00E94B5
:100170001E02C1FB662760F989E00E941E02C2FBD5
:10018000662760F98AE00E941E02C3FB662760F9B9
:100190008CE00E941E0261E082E00E941E028FE954
:1001A0009FE00197F1F700C0000060E082E00E944C
:1001B0001E028FE19EE40197F1F700C00000CF918D
:1001C000089583E30E94830082E30E94830088E213
:1001D0000E9483008CE00E94830081E00E948300E3
:1001E00086E00E94830082E00E9483000895CF93FE
:1001F000C82F61E083E00E941E0260E082E00E945E
:100200001E02C4FB662760F988E00E941E02C5FB3F
:10021000662760F989E00E941E02C6FB662760F926
:100220008AE00E941E026C2F661F6627661F8CE004
:100230000E941E0261E082E00E941E028FE99FE0A0
:100240000197F1F700C0000060E082E00E941E020A
:100250006C2F617088E00E941E02C1FB662760F966
:1002600089E00E941E02C2FB662760F98AE00E94B4
:100270001E02C3FB662760F98CE00E941E0261E04B
:1002800082E00E941E028FE99FE00197F1F700C013
:10029000000060E082E00E941E028FE19EE4019770
:1002A000F1F700C00000CF9108958F929F92AF9216
:1002B000BF92CF92DF92EF92FF926B017C016115AA
:1002C00071058105910521F480E30E94F7000DC0BE
:1002D00099235CF48DE20E94F700F094E094D094AE
:1002E000C094C11CD11CE11CF11C61E070E080E0F5
:1002F00090E024C0DC01CB01880F991FAA1FBB1F0F
:100300004C015D01880C991CAA1CBB1C880C991C13
:10031000AA1CBB1C880E991EAA1EBB1EC701B601D3
:100320002AE030E040E050E00E940C04680D791DA6
:100330008A1D9B1DC22ED32EE42EF52E1C141D04E7
:100340001E041F04BCF212C02AE030E040E050E07E
:100350000E94EA03C22ED32EE42EF52E80E3860FF0
:100360000E94F7006C2D7D2D8E2D9F2D6230710522
:100370008105910548F7FF90EF90DF90CF90BF90F7
:10038000AF909F908F900895CF93DF9300D000D0CF
:10039000CDB7DEB790E8998390EC9A8394E99B837C
:1003A00094ED9C83E1E0F0E0EC0FFD1FE80FF11D00
:1003B0008081860F0E9483000F900F900F900F9006
:1003C000DF91CF910895853081F018F4843049F0A1
:1003D0000895863071F08F3079F487B3806887BBD9
:1003E00008958AB380618ABB08958AB380628ABB0C
:1003F00008958AB380648ABB08950E94A502089577
:1004000087B1806487B987B18F7787B987B187B99A
:1004100086B1806286B980B780BF86B1876086B9B1
:1004200086B1886086B987B18F7D87B986B18068CB
:1004300086B9089586B1806486B90895982F9695F7
:10044000969596958770662309F43FC0613009F050
:100450007BC0913099F028F09230E9F0933041F16F
:1004600008954BB321E030E0B90102C0660F771F59
:100470008A95E2F7CB01842B8BBB089548B321E02A
:1004800030E0B90102C0660F771F8A95E2F7CB0111
:10049000842B88BB089545B321E030E0B90102C048
:1004A000660F771F8A95E2F7CB01842B85BB0895F1
:1004B00042B321E030E0B90102C0660F771F8A9590
:1004C000E2F7CB01842B82BB08959130A1F028F094
:1004D0009230F9F0933059F108954BB321E030E0B8
:1004E000B90102C0660F771F8A95E2F7CB018095AC
:1004F00084238BBB089548B321E030E0B90102C0EA
:10050000660F771F8A95E2F7CB018095842388BB1D
:10051000089545B321E030E0B90102C0660F771FAE
:100520008A95E2F7CB018095842385BB089542B379
:1005300021E030E0B90102C0660F771F8A95E2F72B
:10054000CB018095842382BB0895982F969596952C
:1005500096958770913099F028F09230E9F09330B9
:1005600041F108954BB321E030E0B90102C0660FBC
:10057000771F8A95E2F7CB0184278BBB089548B398
:1005800021E030E0B90102C0660F771F8A95E2F7DB
:10059000CB01842788BB089545B321E030E0B90141
:1005A00002C0660F771F8A95E2F7CB01842785BBCF
:1005B000089542B321E030E0B90102C0660F771F11
:1005C0008A95E2F7CB01842782BB0895882331F016
:1005D000813039F48FB780688FBF08958FB78F77D8
:1005E0008FBF0895E82FF0E0EE0FFF1FE857FF4F91
:1005F0007183608308951F920F920FB60F9211249A
:100600002F933F934F935F936F937F938F939F931A
:10061000AF93BF93EF93FF93E0918A00F0918B002B
:10062000309709F00995FF91EF91BF91AF919F919C
:100630008F917F916F915F914F913F912F910F908B
:100640000FBE0F901F9018951F920F920FB60F922A
:1006500011242F933F934F935F936F937F938F93C7
:100660009F93AF93BF93EF93FF9324B135B1A8E865
:10067000B3E10E942B04DC01CB01072E7AE0B69592
:10068000A795979587957A95D1F7702D8093B000AF
:100690009093B100A093B200B093B300E091A60094
:1006A000F091A700309709F00995FF91EF91BF9164
:1006B000AF919F918F917F916F915F914F913F91FA
:1006C0002F910F900FBE0F901F90189590E07EC055
:1006D000E92FF0E0EE0FFF1FE05AFF4F8081282F37
:1006E000269526952695877031813323B9F13130CF
:1006F00009F06BC0213089F028F02230C9F0233096
:1007000011F163C04AB321E030E002C0220F331F71
:100710008A95E2F7242B2ABB58C047B321E030E08A
:1007200002C0220F331F8A95E2F7242B27BB4DC04E
:1007300044B321E030E002C0220F331F8A95E2F774
:10074000242B24BB42C041B321E030E002C0220F81
:10075000331F8A95E2F7242B21BB37C0213091F05B
:1007600028F02230D9F0233029F12FC04AB321E0FC
:1007700030E002C0220F331F8A95E2F72095242330
:100780002ABB23C047B321E030E002C0220F331F51
:100790008A95E2F72095242327BB17C044B321E0B4
:1007A00030E002C0220F331F8A95E2F72095242300
:1007B00024BB0BC041B321E030E002C0220F331F45
:1007C0008A95E2F72095242321BB9F5F943108F49A
:1007D0007FCF0895A1E21A2EAA1BBB1BFD010DC0FD
:1007E000AA1FBB1FEE1FFF1FA217B307E407F507E1
:1007F00020F0A21BB30BE40BF50B661F771F881FBD
:10080000991F1A9469F760957095809590959B0152
:10081000AC01BD01CF010895052E97FB1EF4009495
:100820000E94230457FD07D00E94EA0307FC03D06F
:100830004EF40C94230450954095309521953F4FEC
:100840004F4F5F4F089590958095709561957F4FBC
:100850008F4F9F4F0895A29FB001B39FC001A39FE8
:10086000700D811D1124911DB29F700D811D1124E9
:08087000911D0895F894FFCFDB
:1008780003010201080109010A010C011F001E0001
:100888001D001B00150114011301120100000000D6
:08089800000000000000000058
:00000001FF
