:100000000C942A000C943F000C9451000C943F0077
:100010000C943F000C943F000C943F000C943F0064
:100020000C943F000C943F000C943F000C943F0054
:100030000C943F000C943F000C943F000C943F0044
:100040000C943F000C943F000C943F000C943F0034
:100050000C943F0011241FBECFE5D8E0DEBFCDBF1A
:1000600010E0A0E6B0E0EEE2F4E002C005900D92F0
:10007000A838B107D9F70E9441000C9415020C94DE
:1000800000000E94910181E00E946C010E947801B1
:100090000E9476008FE00E94870085E00E94870022
:1000A000FFCF1F920F920FB60F9211242F933F9301
:1000B0004F935F936F937F938F939F93AF93BF9370
:1000C000EF93FF938FE00E94A100FF91EF91BF910A
:1000D000AF919F918F917F916F915F914F913F91E0
:1000E0002F910F900FBE0F901F90189561E085E142
:1000F0000E94A40061E084E10E94A40061E083E129
:100100000E94A40061E082E10E94A400089585306D
:1001100081F018F4843049F00895863071F08F3002
:1001200079F487B3806887BB08958AB380618ABBFE
:1001300008958AB380628ABB08958AB380648ABBBB
:1001400008950E942B010895982F9695969596955F
:100150008770662309F43FC0613009F07BC091309D
:1001600099F028F09230E9F0933041F108954BB3C3
:1001700021E030E0B90102C0660F771F8A95E2F7EF
:10018000CB01842B8BBB089548B321E030E0B9014B
:1001900002C0660F771F8A95E2F7CB01842B88BBDC
:1001A000089545B321E030E0B90102C0660F771F22
:1001B0008A95E2F7CB01842B85BB089542B321E0F9
:1001C00030E0B90102C0660F771F8A95E2F7CB01D4
:1001D000842B82BB08959130A1F028F09230F9F081
:1001E000933059F108954BB321E030E0B90102C0DA
:1001F000660F771F8A95E2F7CB01809584238BBB2E
:10020000089548B321E030E0B90102C0660F771FBE
:100210008A95E2F7CB018095842388BB089545B386
:1002200021E030E0B90102C0660F771F8A95E2F73E
:10023000CB018095842385BB089542B321E030E053
:10024000B90102C0660F771F8A95E2F7CB0180954E
:10025000842382BB0895982F9695969596958770DE
:10026000913099F028F09230E9F0933041F10895FF
:100270004BB321E030E0B90102C0660F771F8A95C9
:10028000E2F7CB0184278BBB089548B321E030E02F
:10029000B90102C0660F771F8A95E2F7CB01842768
:1002A00088BB089545B321E030E0B90102C0660F74
:1002B000771F8A95E2F7CB01842785BB089542B367
:1002C00021E030E0B90102C0660F771F8A95E2F79E
:1002D000CB01842782BB0895882331F0813039F423
:1002E0008FB780688FBF08958FB78F778FBF0895BE
:1002F0008BB780648BBF85B78E7F85BF85B78D7FB9
:1003000085BF8BB780688BBF85B78B7F85BF85B76F
:10031000877F85BF8BB780628BBF84B78F7B84BF9D
:10032000089590E07EC0E92FF0E0EE0FFF1FE05A45
:10033000FF4F8081282F269526952695877031813D
:100340003323B9F1313009F06BC0213089F028F046
:100350002230C9F0233011F163C04AB321E030E00C
:1003600002C0220F331F8A95E2F7242B2ABB58C004
:1003700047B321E030E002C0220F331F8A95E2F735
:10038000242B27BB4DC044B321E030E002C0220F34
:10039000331F8A95E2F7242B24BB42C041B321E0EE
:1003A00030E002C0220F331F8A95E2F7242B21BBD5
:1003B00037C0213091F028F02230D9F0233029F1D4
:1003C0002FC04AB321E030E002C0220F331F8A95CC
:1003D000E2F7209524232ABB23C047B321E030E075
:1003E00002C0220F331F8A95E2F72095242327BBF2
:1003F00017C044B321E030E002C0220F331F8A95BA
:10040000E2F72095242324BB0BC041B321E030E068
:1004100002C0220F331F8A95E2F72095242321BBC7
:0E0420009F5F943108F47FCF0895F894FFCFCA
:10042E0003010201080109010A010C011F001E004F
:10043E001D001B0015011401130112010000000024
:08044E000000000000000000A6
:00000001FF
