:100000000C942A000C943F000C943F000C943F0089
:100010000C943F000C943F000C943F000C943F0064
:100020000C943F000C943F000C943F000C943F0054
:100030000C943F000C943F000C943F000C943F0044
:100040000C943F000C943F000C943F000C943F0034
:100050000C943F0011241FBECFE5D8E0DEBFCDBF1A
:1000600010E0A0E6B0E0EAECF1E002C005900D92ED
:10007000A836B107D9F70E9441000C94E3000C9414
:1000800000000E945F0080E00E944700FFCF8130A7
:1000900051F028F0823059F0833069F0089588B328
:1000A000806888BB08958BB380618BBB08958BB348
:1000B00080628BBB08958BB380648BBB089590E006
:1000C0007EC0E92FF0E0EE0FFF1FE05AFF4F808166
:1000D000282F269526952695877031813323B9F1EF
:1000E000313009F06BC0213089F028F02230C9F09E
:1000F000233011F163C04AB321E030E002C0220F87
:10010000331F8A95E2F7242B2ABB58C047B321E05E
:1001100030E002C0220F331F8A95E2F7242B27BB61
:100120004DC044B321E030E002C0220F331F8A9556
:10013000E2F7242B24BB42C041B321E030E002C0EF
:10014000220F331F8A95E2F7242B21BB37C02130C1
:1001500091F028F02230D9F0233029F12FC04AB392
:1001600021E030E002C0220F331F8A95E2F720958C
:1001700024232ABB23C047B321E030E002C0220F72
:10018000331F8A95E2F72095242327BB17C044B379
:1001900021E030E002C0220F331F8A95E2F720955C
:1001A000242324BB0BC041B321E030E002C0220F66
:1001B000331F8A95E2F72095242321BB9F5F94305B
:0A01C00008F47FCF0895F894FFCFF4
:0801CA000F010401050106010B
:00000001FF
