S0180000436F756E745F446F776E5F54696D65722E73726563AC
S11300000C9434000C943E000C943E000C943E007E
S11300100C943E000C943E000C943E000C943E0064
S11300200C943E000C943E000C943E000C943E0054
S11300300C943E000C943E000C943E000C943E0044
S11300400C943E000C943E000C943E000C943E0034
S11300500C943E00CB01D801E501F201FF010C0232
S1130060190226023302400211241FBECFE5D8E054
S1130070DEBFCDBF0E94EA000C94FB020C9400008A
S113008091B321E030E002C0220F331F8A95E2F7DA
S11300902095292321BB089520B3482F30E0B901CE
S11300A002C0759567958A95E2F7CB01817020E0CF
S11300B009C020B330E0042E02C0359527950A9478
S11300C0E2F721702223A9F3EFE9FFE03197F1F77A
S11300D000C00000089584B3806484BB089585B390
S11300E0806485BB089585B38F7B85BB08950E948A
S11300F06B000E946F002FEF84E39CE0215080404E
S11301009040E1F700C000000E9473000895813020
S113011051F028F0823059F0833069F0089587B3A4
S1130120806887BB08958AB380618ABB08958AB3C7
S113013080628ABB08958AB380648ABB0895813043
S113014051F028F0823059F0833069F0089588B373
S1130150806888BB08958BB380618BBB08958BB393
S113016080628BBB08958BB380648BBB0895813010
S113017051F028F0823059F0833069F0089588B343
S11301808F7788BB08958BB38F7E8BBB08958BB319
S11301908F7D8BBB08958BB38F7B8BBB0895813090
S11301A051F028F0823061F0833079F0089588B3FB
S11301B0805888BB08959BB380E189278BBB089541
S11301C09BB380E289278BBB08959BB380E4892786
S11301D08BBB08950E9481010E946B0087E00E94FE
S11301E0400086E00E94400085E00E94400083E0D9
S11301F00E94400080E00E94870081E00E94870006
S113020082E00E94870080E00E949F0010E000E0EE
S1130210F12C812F90E024E6029F800D911D112482
S11302200E94530287E00E944C00811107C00E9483
S1130230B70081E00E949F00FF24F39486E00E94AF
S11302404C00811103C00C3308F40F5F85E00E9459
S11302504C00811103C01C3308F41F5F83E00E942B
S11302604C0081114BC00E949F0081E00E94B700A6
S113027010E000E0F12C42C0812F90E024E6029FC0
S1130280800D911D11240E9453028FE39CE9019774
S1130290F1F700C00000219602C0C0E0D0E0C436EF
S11302A0D10554F311501111F8CF002319F0015066
S11302B01BE324C0011122C0111120C081E00E945F
S11302C0B700C0E0D0E00FC082E00E94CF000E94DF
S11302D077009FEF26E781E0915020408040E1F7CE
S11302E000C000002196C530D10574F382E00E945D
S11302F0B70080E00E949F00F12E8BCFF110D3CF86
S113030088CF87B3816087BB87B3826087BB87B39D
S1130310846087BB87B3806187BB8AB384608ABBF0
S11303208AB388608ABB87B3806287BB87B38064E3
S113033087BB08959BB394609BBB9BB398609BBBA6
S113034098B3906298BB98B3906498BB823069F07C
S113035018F4813031F00895833059F0843069F015
S113036008958BB3877F8BBB08958BB38B7F8BBB37
S1130370089588B38F7D88BB089588B38F7B88BB2D
S1130380089590E08A30910508F086C0FC01E65D8E
S1130390FF4F0C94E60288B38E7F88BB88B38D7FB1
S11303A088BB88B38B7F88BB88B38F7E88BB74C0BF
S11303B088B3816088BB88B38D7F88BB88B38B7F0B
S11303C088BB88B38F7E88BB67C088B38E7F88BBA9
S11303D088B3826088BB88B38B7F88BB88B38F7EE9
S11303E088BB5AC088B3816088BB88B3826088BBED
S11303F088B38B7F88BB88B38F7E88BB4DC088B39E
S11304008E7F88BB88B38D7F88BB88B3846088BBAC
S113041088B38F7E88BB40C088B3816088BB88B3B3
S11304208D7F88BB88B3846088BB88B38F7E88BB8C
S113043033C088B38E7F88BB88B3826088BB88B39F
S1130440846088BB88B38F7E88BB26C088B38160F4
S113045088BB88B3826088BB88B3846088BB88B358
S11304608F7E88BB19C088B38E7F88BB88B38D7F8D
S113047088BB88B38B7F88BB88B3806188BB0CC082
S113048088B3816088BB88B38D7F88BB88B38B7F3A
S113049088BB88B3806188BB8FE99FE00197F1F73F
S11304A000C000000895EF92FF920F931F93CF9323
S11304B0DF93803127E2920708F081C0EC0181E0EC
S11304C00E949A017E01F694E794F694E7949701CA
S11304D0ABE7B4E10E94EC028C011695079524E683
S11304E0209FC001219F900D11248E01081B190B20
S11304F09801ADECBCEC0E94EC029695879596951C
S11305008795969587959C01220F331F880F991F15
S1130510880F991F880F991F820F931F202F281B64
S1130520822F0E94C10182E00E949A019801ADECE1
S1130530BCEC0E94EC0296958795969587959695C6
S113054087950E94C10183E00E949A019701ABE75D
S1130550B4E10E94EC02AC01569547959A01ADECCA
S1130560BCEC0E94EC029695879596958795969596
S113057087959C01220F331F880F991F880F991F9D
S1130580880F991F820F931F242F281B822F0E94EC
S1130590C10184E00E949A019E0136952795369503
S11305A0279536952795A5ECB0E20E94EC0292952A
S11305B082958F7089279F7089270E94C101DF91DE
S11305C0CF911F910F91FF90EF900895EE0FFF1FB1
S11305D00590F491E02D0994A29FB001B39FC0014E
S11305E0A39F700D811D1124911DB29F700D811D5B
S10D05F01124911D0895F894FFCF23
S9030000FC
