S0150000536576656E5F5365676D656E742E73726563DC
S11300000C9434000C943E000C943E000C943E007E
S11300100C943E000C943E000C943E000C943E0064
S11300200C943E000C943E000C943E000C943E0054
S11300300C943E000C943E000C943E000C943E0044
S11300400C943E000C943E000C943E000C943E0034
S11300500C943E0091009E00AB00B800C500D20095
S1130060DF00EC00F900060111241FBECFE5D8E043
S1130070DEBFCDBF0E9440000C94C1010C9400006F
S11300800E94470081E794E20E941901FBCF87B3E5
S1130090816087BB87B3826087BB87B3846087BB7B
S11300A087B3806187BB8AB384608ABB8AB3886064
S11300B08ABB87B3806287BB87B3806487BB08959C
S11300C09BB394609BBB9BB398609BBB98B39062BB
S11300D098BB98B3906498BB823069F018F481306F
S11300E031F00895833059F0843069F008958BB36A
S11300F0877F8BBB08958BB38B7F8BBB089588B3AD
S11301008F7D88BB089588B38F7B88BB089590E06A
S11301108A30910508F086C0FC01E65DFF4F0C941F
S1130120AC0188B38E7F88BB88B38D7F88BB88B3CE
S11301308B7F88BB88B38F7E88BB74C088B3816093
S113014088BB88B38D7F88BB88B38B7F88BB88B31B
S11301508F7E88BB67C088B38E7F88BB88B382607C
S113016088BB88B38B7F88BB88B38F7E88BB5AC01B
S113017088B3816088BB88B3826088BB88B38B7F77
S113018088BB88B38F7E88BB4DC088B38E7F88BB05
S113019088B38D7F88BB88B3846088BB88B38F7E27
S11301A088BB40C088B3816088BB88B38D7F88BB1F
S11301B088B3846088BB88B38F7E88BB33C088B320
S11301C08E7F88BB88B3826088BB88B3846088BB19
S11301D088B38F7E88BB26C088B3816088BB88B310
S11301E0826088BB88B3846088BB88B38F7E88BBF9
S11301F019C088B38E7F88BB88B38D7F88BB88B3D2
S11302008B7F88BB88B3806188BB0CC088B3816056
S113021088BB88B38D7F88BB88B38B7F88BB88B34A
S1130220806188BB8FE99FE00197F1F700C000006F
S11302300895EF92FF920F931F93CF93DF93803132
S113024027E2920708F081C0EC0181E00E9460007F
S11302507E01F694E794F694E7949701ABE7B4E152
S11302600E94B2018C011695079524E6209FC001D7
S1130270219F900D11248E01081B190B9801ADECE0
S1130280BCEC0E94B20196958795969587959695B4
S113029087959C01220F331F880F991F880F991F80
S11302A0880F991F820F931F202F281B822F0E94D3
S11302B0870082E00E9460009801ADECBCEC0E94D3
S11302C0B2019695879596958795969587950E9400
S11302D0870083E00E9460009701ABE7B4E10E94CD
S11302E0B201AC01569547959A01ADECBCEC0E9465
S11302F0B2019695879596958795969587959C01D5
S1130300220F331F880F991F880F991F880F991F79
S1130310820F931F242F281B822F0E94870084E0C2
S11303200E9460009E01369527953695279536954F
S11303302795A5ECB0E20E94B201929582958F7048
S113034089279F7089270E948700DF91CF911F9191
S11303500F91FF90EF900895EE0FFF1F0590F49119
S1130360E02D0994A29FB001B39FC001A39F700D1B
S1130370811D1124911DB29F700D811D1124911DA9
S10903800895F894FFCF7C
S9030000FC
