:100000000C942A000C9447000C94F8010C944700BF
:100010000C9447000C9447000C9447000C94470044
:100020000C9447000C9447000C9447000C94470034
:100030000C9447000C9447000C9447000C94470024
:100040000C9421020C9447000C9447000C94470038
:100050000C94470011241FBECFE5D8E0DEBFCDBF12
:1000600010E0A0E6B0E0E0EFF5E002C005900D92F0
:10007000A43AB107D9F720E0A4EAB0E001C01D928C
:10008000A03DB207E1F70E9449000C94F6020C94DF
:1000900000000E9463020E94CE000E94740160E092
:1000A00080E00E94550188E890E00E94420160E0F3
:1000B00082E00E94550183E990E00E94420160E0E5
:1000C00080E00E94550188E890E00E94420160E0D3
:1000D00082E00E94550183E990E00E944201EFCF47
:1000E000CF93C82F60E083E00E94780160E082E057
:1000F0000E947801C4FB662760F988E00E947801BD
:10010000C5FB662760F989E00E947801C6FB662777
:1001100060F98AE00E9478016C2F661F6627661FCF
:100120008CE00E94780161E082E00E9478018FE912
:100130009FE00197F1F700C0000060E082E00E94BC
:1001400078016C2F617088E00E947801C1FB6627FE
:1001500060F989E00E947801C2FB662760F98AE0B5
:100160000E947801C3FB662760F98CE00E94780149
:1001700061E082E00E9478018FE99FE00197F1F74A
:1001800000C0000060E082E00E9478018FE19EE400
:100190000197F1F700C00000CF91089583E30E941A
:1001A000700082E30E94700088E20E9470008CE080
:1001B0000E94700081E00E94700086E00E94700042
:1001C00082E00E9470000895CF93C82F61E083E021
:1001D0000E94780160E082E00E947801C4FB6627FB
:1001E00060F988E00E947801C5FB662760F989E024
:1001F0000E947801C6FB662760F98AE00E947801B8
:100200006C2F661F6627661F8CE00E94780161E0F4
:1002100082E00E9478018FE99FE00197F1F700C02A
:10022000000060E082E00E9478016C2F617088E03D
:100230000E947801C1FB662760F989E00E9478017D
:10024000C2FB662760F98AE00E947801C3FB66273B
:1002500060F98CE00E94780161E082E00E94780100
:100260008FE99FE00197F1F700C0000060E082E0B5
:100270000E9478018FE19EE40197F1F700C0000031
:10028000CF9108950F931F93CF938C01C0E003C0CB
:100290000E94E400CF5FF801EC0FF11D8081811115
:1002A000F7CFCF911F910F910895CF93DF9300D097
:1002B00000D0CDB7DEB790E8998390EC9A8394E9AB
:1002C0009B8394ED9C83E1E0F0E0EC0FFD1FE80FD1
:1002D000F11D8081860F0E9470000F900F900F908B
:1002E0000F90DF91CF91089581E00E9470000895F2
:1002F0009DEC899F912D112492959F70392F330F7A
:10030000330F232F220F220F230F821B282F662348
:10031000B9F1613009F06BC0913089F028F092306A
:10032000C9F0933011F108953BB381E090E002C031
:10033000880F991F2A95E2F7832B8BBB089538B35A
:1003400081E090E002C0880F991F2A95E2F7832B85
:1003500088BB089535B381E090E002C0880F991FF3
:100360002A95E2F7832B85BB089532B381E090E0B4
:1003700002C0880F991F2A95E2F7832B82BB08954C
:10038000913091F028F09230D9F0933029F108950E
:100390003BB381E090E002C0880F991F2A95E2F7F5
:1003A000809583238BBB089538B381E090E002C031
:1003B000880F991F2A95E2F78095832388BB0895BB
:1003C00035B381E090E002C0880F991F2A95E2F7CB
:1003D0008095832385BB089532B381E090E002C00D
:1003E000880F991F2A95E2F78095832382BB089591
:1003F0001F920F920FB60F9211242F933F934F939A
:100400005F936F937F938F939F93AF93BF93EF937C
:10041000FF93E091A600F091A700309709F00995AD
:10042000FF91EF91BF91AF919F918F917F916F91CC
:100430005F914F913F912F910F900FBE0F901F90A2
:1004400018951F920F920FB60F9211242F933F937E
:100450004F935F936F937F938F939F93AF93BF93CC
:10046000EF93FF9324B135B1A8E8B3E10E94E7020E
:10047000DC01CB01072E7AE0B695A7959795879575
:100480007A95D1F7702D8093CC009093CD00A093F6
:10049000CE00B093CF00E091C200F091C30030973E
:1004A00009F00995FF91EF91BF91AF919F918F91C5
:1004B0007F916F915F914F913F912F910F900FBE60
:1004C0000F901F90189590E07EC0E92FF0E0EE0F9E
:1004D000FF1FE05AFF4F8081282F269526952695ED
:1004E000877031813323B9F1313009F06BC021308D
:1004F00089F028F02230C9F0233011F163C04AB3EB
:1005000021E030E002C0220F331F8A95E2F7242B4E
:100510002ABB58C047B321E030E002C0220F331F8E
:100520008A95E2F7242B27BB4DC044B321E030E08D
:1005300002C0220F331F8A95E2F7242B24BB42C04E
:1005400041B321E030E002C0220F331F8A95E2F769
:10055000242B21BB37C0213091F028F02230D9F074
:10056000233029F12FC04AB321E030E002C0220F2E
:10057000331F8A95E2F7209524232ABB23C047B373
:1005800021E030E002C0220F331F8A95E2F7209568
:10059000242327BB17C044B321E030E002C0220F60
:1005A000331F8A95E2F72095242324BB0BC041B367
:1005B00021E030E002C0220F331F8A95E2F7209538
:1005C000242321BB9F5F943108F47FCF0895A29F1D
:1005D000B001B39FC001A39F700D811D1124911D17
:1005E000B29F700D811D1124911D0895F894FFCFC5
:1005F00003010201080109010A010C011F001E008C
:1006000000000000000000000000000000000000EA
:100610000000000000000000566F6C7461676520E8
:100620003D200042617474657279204C6966653AB8
:040630002025000081
:00000001FF
